:100000000C9483000C9442100C9442100C94AB0A94
:100010000C944E0D0C9442100C941E100C94421033
:100020000C9442100C9442100C9442100C94421008
:100030000C9442100C9442100C9442100C944210F8
:100040000C9442100C9442100C9442100C944210E8
:100050000C9442100C9442100C94830C0C9442109B
:100060000C941E0D0C94EE0C0C9442100C94421047
:100070000C9442100C944D0C0C9442100C944210B1
:100080000C9442100C9442100C942D100C944210BD
:100090000C9442100C9442100C9442100C94421098
:1000A0000C9442100C9442100C9442100C94421088
:1000B0000C9423100C9428100C9442100C944210B1
:1000C0000C9442100C9442100C9442100C94421068
:1000D0000C9442100C9442100C9442100C94421058
:1000E0000C9442100C9442104000400280400240A8
:1000F000130020A04013404D80404D404F0020B1E0
:10010000404F4053800011241FBECFEFCDBFDFE72B
:10011000DEBFE8EEF0E041E019C0B791A79137915A
:100120002791079107FD0EC097918791EF01F92F55
:10013000E82F0BBF07900D92A217B307D9F7FE0166
:100140001BBE04C01D92A217B307E1F7E530F40708
:0E01500021F70E94170C0C94930FF894FFCF28
:10015E0053797374656D20496E697469616C697A3F
:09016E00656420002564200A00EC
:1001770068076C094C836A9074A07AC0008068880D
:0601870000846C8200817F
:07018D00286E756C6C29005F
:06019400286E696C2900D1
:10019A002F923F924F926F927F928F929F92AF923D
:1001AA00BF92CF92DF92EF92FF920F931F93CF935A
:1001BA00DF93CDB7DEB72E97CDBFDEBF4C016B0103
:1001CA00380119821A828FEF9FEF8B839C831D82DD
:1001DA001E824F83588729873A87A12CB12CD601D2
:1001EA002D913D914C912A0D3B1D411DB7FC4A951D
:1001FA00F901542F0E94EC0F862F611116C0F601E7
:10020A00208331834283F901542F0E94EC0F653217
:10021A0009F011C21901442EFFEF2F1A3F0A4F0AA3
:10022A00D6012D923D924C921BC0653241F3B40126
:10023A00082E000C990B0E941A0A4FEFA41AB40A4E
:10024A00CECF6C32DCF06D3229F529813A812160FA
:10025A0029833A830196A11DF60180839183A283A3
:10026A00F60180819181A281FC015A2F0E94EC0F34
:10027A006B3239F729813A812460EACF603221F45E
:10028A0029813A812860E4CF633251F429813A8185
:10029A002061DECF603321F429813A812260D8CFF0
:1002AA00B701C6010E94EA0A8D839E8397FF0BC09D
:1002BA0029813A81F1E02F2729833A839195819503
:1002CA0091098D839E8389819A8180FF03C08D7FE6
:1002DA0089839A83F60180819181A281FC015A2F38
:1002EA000E94EC0F6E3261F40196A11DF601808323
:1002FA009183A283B701C6010E94EA0A8B839C8379
:10030A00C6010E943409182FD6019C9111968C912E
:10031A00119712965C91E92FF82F0E94EC0F862F05
:10032A00660F990B0E94C10F893609F44BC084F4F9
:10033A00833609F41CC134F4853209F448C1813684
:10034A00E1F053C18436F1F188360CF4EBC04DC1AB
:10035A00803709F4B2C03CF48E3609F4D8C08F361F
:10036A0009F46EC042C1853709F44BC0883709F4D5
:10037A0086C0833709F039C110C1612F70E0A70127
:10038A00CE010B960E940000892B09F44BC1F6019D
:10039A0080819181A2819C014A2F2F5F3F4F4F4F4D
:1003AA00208331834283FC015A2F0E94EC0F262FAF
:1003BA00AE01455F5F4FBE016F5F7F4FC4010E9470
:1003CA0000002DC1612F70E0970141E050E0CE019D
:1003DA000B960E943707892B09F424C1F601808104
:1003EA009181A2810196A11D80839183A283AE018E
:1003FA00455F5F4FBE016F5F7F4FC4010E94550684
:10040A000EC1612F70E0970140E050E0CE010B96DB
:10041A000E943707892B09F405C1F6018081918171
:10042A00A2810196A11D80839183A283AE01455FBB
:10043A005F4FBE016F5F7F4FC4010E94630AEFC026
:10044A00612F70E0970140E050E0CE010B960E94C8
:10045A003707892B09F4E6C0F60180819181A281D0
:10046A000196A11D80839183A283AE01455F5F4FF0
:10047A00BE016F5F7F4FC4010E94DA08D0C0612FAE
:10048A0070E0970140E050E0CE010B960E943707DA
:10049A00892B09F4C7C0F60180819181A2819C0150
:1004AA004A2F2F5F3F4F4F4F208331834283FC01F6
:1004BA005A2F0E94EC0F262F20C0970140E050E0EF
:1004CA0060EF70E0CE010B960E943707892B09F482
:1004DA00A9C0F60180819181A2810196A11D808324
:1004EA009183A2838B859C85892B31F400E010E0EF
:1004FA0024E931E040E08DC028E7AE01455F5F4F57
:10050A00BE016F5F7F4FC4010E944B0488C0A501E2
:10051A00460D571D612F70E09701CE010B960E9480
:10052A00000080C0612F70E0A701CE010B960E94E7
:10053A000000892B09F476C0F60180819181A2819D
:10054A009C014A2F2F5F3F4F4F4F208331834283B5
:10055A00FC015A2F0E94EC0F262FAE01455F5F4F18
:10056A00BE016F5F7F4FC4010E94000058C010385F
:10057A0009F058C0F60180819181A2810196A11DDE
:10058A0080839183A283D701ED91FC911197CF01CA
:10059A0002968D939C93808126C0103809F042C040
:1005AA00F60180819181A2810196A11D80839183A8
:1005BA00A283D701ED91FC911197CF0103968D93F8
:1005CA009C9320813181428100E010E022C01038E2
:1005DA0049F5F6012081318142812F5F3F4F4F4F0C
:1005EA002083318342838B870EC085E28B87F60195
:1005FA0020823182428219821A821D821E828FEFE4
:10060A009FEF8B839C839E01255F3F4F40E801E06B
:10061A0010E0BE016F5F7F4FC4010E94670B8A0D15
:10062A009B1D0AC0F60180819181A2810196A11DBC
:10063A0080839183A283C5012E96CDBFDEBFDF9151
:10064A00CF911F910F91FF90EF90DF90CF90BF90C5
:10065A00AF909F908F907F906F904F903F902F9088
:02066A000895F1
:10066C004F925F926F927F928F929F92AF92BF92B6
:10067C00CF92DF92EF92FF920F931F936B017C014D
:10068C00DC01CB01B701A6014427552760787F77A1
:10069C004115510560487F4759F4A7019601C701E0
:1006AC00B6010E943B10A70196010E94E60F1AC0EA
:1006BC00181619061A061B06D4F0892B8A2B8B2BBD
:1006CC0009F4CCC081E290E080930040909301400B
:1006DC00A7019601C701B6010E94E50F9B01AC0171
:1006EC000E943710562F472F382F292FBBC067E198
:1006FC00F594E794D794C7946A95D1F7C114D104B3
:10070C00E104F104E1F4C12CD12C7601A7FD0AC05F
:10071C00880F991FAA1FBB1F2FEFC21AD20AE20A19
:10072C00F20AF4CF21E0C21AD108E108F108F094E2
:10073C00E094D094C094C11CD11CE11CF11C2FE797
:10074C00C21AD108E108F108AF77BB27A068C0FE38
:10075C0004C0880F991FAA1FBB1FF594E794D79468
:10076C00C794880F991FAA1FBB1FE9E1F0E040E076
:10077C0050E060E071E0812C912C540100E010E01D
:10078C00980128013901440E551E661E771E8415EA
:10079C009505A605B70574F093018201040F151F8A
:1007AC00261F371F84199509A609B709840E951EB3
:1007BC00A61EB71E880F991FAA1FBB1F769567959B
:1007CC00579547953197E9F6892B8A2B8B2BA1F1FD
:1007DC0020E632E442EA5DE060E070E080E89FE30E
:1007EC000E94E50F20E030E040E85FE30E94321009
:1007FC0087FD22C020E632E442EA5DE060E070E072
:10080C0080E89FE30E94E60F20E030E040E85FE3E1
:10081C000E943210181634F482E0880E911CA11C30
:10082C00B11C0AC0D501C40181709927AA27BB2726
:10083C00880E991EAA1EBB1ED501C401B595A7959D
:10084C0097958795B15C37E1CC0CDD1CEE1CFF1C39
:10085C003A95D1F7C80ED91EEA1EFB1E5C2D4D2D04
:10086C003E2D2F2D652F742F832F922F1F910F91BB
:10087C00FF90EF90DF90CF90BF90AF909F908F90B4
:0A088C007F906F905F904F900895E9
:10089600AFE0B0E0E1E5F4E00C94C50E1C016B019D
:1008A60049835A832B83FB018281938184809580BF
:1008B600E080F180A680B78097FD03C0E894E1F858
:1008C60002C081E090E0E981FA8140805180628037
:1008D60073809701207133272C833D838401E4FEC6
:1008E60007C0411451046104710411F0025011094A
:1008F600F701E870FF27EE83FF83E3FE02C0015095
:100906001109F6010084F185E02D3197EE87FF8706
:10091600EA0DFB1D10829C01201B310B28873987AD
:10092600C701827099278A879B87EB818E2FEE0FEE
:10093600990B9C01215431092C873D872E853F85D3
:100946002230310530F48C819D81892B09F041C01C
:100956005BC0411451046104710459F18E859F8571
:1009660001978E879F87C2018F7099278A309105DC
:1009760014F4C09602C0895A9F4FEC85FD857A977C
:1009860048F49C012062215631092A31310510F4C0
:100996000E94B00FEE85FF85EA0DFB1D8083015096
:1009A600110984E076946794579447948A95D1F711
:1009B600C5CF88859985800F911F1816190674F280
:1009C600101611060CF0BFCFEA85FB85EF2B31F62A
:1009D600BACFE981FA8180819181A281B381892B85
:1009E6008A2B8B2B89F0EE85FF85EA0DFB1D31974F
:1009F6002B8120838E859F8502978E879F87FC019A
:100A0600EA0DFB1D80E38083EE81FF81EF2B59F019
:100A16002E853F85215031092E873F87F901EA0D42
:100A2600FB1D80E28083F601208531852150310946
:100A36008E859F85281B390B8A0D9B1DAC0160E8AE
:100A46008401C1010E9486099C01F1018081918186
:100A560090FF06C0F60182819381821793070CF4FA
:0A0A6600C9012F96E2E10C94F60E90
:100A70000F931F93CF93DF9340E054E0FA0110826D
:100A800020E234E0F901108280E494E061E0FC01AE
:100A90006083C0E6D4E01882A0E8B4E01C9200EACB
:100AA00014E0F8011082FA011482F9011482FC01A9
:100AB00064831C8214961C921497F8011482FA0124
:100AC000108A118A128A138A148A158A168A178A3A
:100AD000F901108A118A128A138A148A158A168AD1
:100AE000178AFC01108A118A128A138A148A158ABD
:100AF000168A178A188A198A1A8A1B8A1C8A1D8ADA
:100B00001E8A1F8A50961C92509751961C9251979C
:100B100052961C92529753961C92539754961C923D
:100B2000549755961C92559756961C9256975796E1
:100B30001C92F801108A118A128A138A148A158A63
:100B4000168A178AE0EEF5E011861182108214826F
:100B5000168217821086158212821382128689E409
:100B600090E180934B4090934C408AE490E18093D5
:100B7000494090934A408BE490E1809347409093A2
:100B800048408CE490E18093454090934640DF914B
:080B9000CF911F910F91089510
:100B9800AF92BF92CF92DF92EF92FF920F931F9383
:100BA8000E940A10BC01990F880B990B60932B4087
:100BB80070932C4080932D4090932E409B01AC0164
:100BC8000E94410F609327407093284080932940EA
:100BD80090932A406B017C01FF0CCC08DC2C760139
:100BE800262F372F482F592F6C2D7C2D8C2D9C2D7F
:100BF800A0901B40B0901C40C0901D40D0901E405B
:100C0800E0901F40F0902040009121401091224038
:100C18000E949E0F20931B4030931C4040931D4020
:100C280050931E4060931F40709320408093214052
:100C380090932240E0915240EF5FE0935240E09160
:100C48005240E83C28F120931340309314404093DD
:100C58001540509316406093174070931840809346
:100C6800194090931A4010921B4010921C40109209
:100C78001D4010921E4010921F401092204010926A
:100C88002140109222401092524081E080935140BE
:100C98001F910F91FF90EF90DF90CF90BF90AF9092
:020CA8000895AD
:100CAA00A2E0B0E0EBE5F6E00C94C50E4C016B0156
:100CBA00FB0122813381A480B5808081918189835F
:100CCA009A8366807780FA0120803180428053803F
:100CDA00B201A10157FE07C044275527BA0142199C
:100CEA0053096409750937FD03C08D7F89839A8387
:100CFA00950157FC05C0898182FD02C083FF02C0AD
:100D0A0021503109CE0101967C010AE010E0C601AA
:100D1A000E94750857FC03C0298122FF0AC0019767
:100D2A00F301E80FF91F57FC02C02BE209C02DE2BC
:100D3A0007C023FF06C00197F301E80FF91F20E25D
:100D4A002083E980FA80F601208531852150310916
:100D5A00281B390B860D971DAC0160E88501C4017B
:100D6A000E9486099C01F4018081918190FF06C04E
:100D7A00F60182819381821793070CF4C9012296A6
:060D8A00E2E10C94F60EFC
:100D900010C00E94D70F58F00E94D00F40F029F4E5
:100DA0005F3F29F00C94FF0F51110C94DF0F0C944E
:100DB0003F100E942E0E68F39923B1F3552391F34F
:100DC000951B550BBB27AA2762177307840738F0BA
:100DD0009F5F5F4F220F331F441FAA1FA9F335D017
:100DE0000E2E3AF0E0E832D091505040E695001CCB
:100DF000CAF72BD0FE2F29D0660F771F881FBB1F85
:100E0000261737074807AB07B0E809F0BB0B802D62
:100E1000BF01FF2793585F4F3AF09E3F510578F08E
:100E20000C94FF0F0C94DF0F5F3FE4F3983ED4F374
:100E3000869577956795B795F7959F5FC9F7880F62
:100E4000911D9695879597F90895E1E0660F771FB4
:100E5000881FBB1F621773078407BA0720F0621B45
:0E0E6000730B840BBA0BEE1F88F7E095089514
:100E6E00CF93DF93DC01F90168387105F1F05CF482
:100E7E006138710561F164387105C9F16038710529
:100E8E0009F056C034C0603C710561F1603F7105D8
:100E9E0009F443C0603A710509F04AC0C081D1819E
:100EAE00CE010296808391832AC0C081D181CE016A
:100EBE00029680839183452B39F04881042E000CD5
:100ECE00550B660B770B21C0488150E02EC0C081B8
:100EDE00D181CE01049680839183488159816A81A4
:100EEE007B8113C0C081D181CE0102961AC0C08110
:100EFE00D181CE01029680839183452BA1F048814A
:100F0E005981052E000C660B770B4D935D936D93F7
:100F1E007C93139781E090E00DC0C081D181CE010A
:100F2E000396808391834881598160E070E0EDCF14
:0A0F3E0080E090E0DF91CF9108956C
:100F48000FC00E94D00F38F00E94D70F20F09523D1
:100F580011F00C94FF0F0C943F1011240C94DF0F28
:100F68000E942E0E70F3959FC1F3950F50E0551F08
:100F7800629FF001729FBB27F00DB11D639FAA27E6
:100F8800F00DB11DAA1F649F6627B00DA11D661F35
:100F9800829F2227B00DA11D621F739FB00DA11D56
:100FA800621F839FA00D611D221F749F3327A00D10
:100FB800611D231F849F600D211D822F762F6A2FAC
:100FC80011249F5750409AF0F1F088234AF0EE0F11
:100FD800FF1FBB1F661F771F881F91505040A9F73E
:100FE8009E3F510580F00C94FF0F0C94DF0F5F3F7C
:100FF800E4F3983ED4F3869577956795B795F7957A
:10100800E7959F5FC1F7FE2B880F911D96958795F1
:0410180097F90895A7
:10101C0011C00E94D00F38F00E94D70F20F039F485
:10102C009F3F19F426F40C943F100EF4E095E7FB67
:10103C000C94FF0FE92F0E942E0E58F3BA1762077B
:10104C0073078407950720F079F4A6F50C94DE0F4E
:10105C000EF4E0950B2EBA2FA02D0B01B9019001C7
:10106C000C01CA01A0011124FF27591B99F0593F0B
:10107C0050F4503E68F11A16F040A22F232F342F53
:10108C004427585FF3CF469537952795A795F040A1
:10109C005395C9F77EF41F16BA0B620B730B840BB6
:1010AC00BAF09150A1F0FF0FBB1F661F771F881F6E
:1010BC00C2F70EC0BA0F621F731F841F48F48795C6
:1010CC0077956795B795F7959E3F08F0B0CF9395B8
:0E10DC00880F08F09927EE0F979587950895D5
:1010EA00A0E0B0E0EBE7F8E00C94C70EDC012801C1
:1010FA001696AD90BC901797F70180819181129650
:10110A00ED91FC9113971896CD91DC91199721973F
:10111A00F7FF02C0E1E0F0E0CA0DDB1D18826901A9
:10112A00A1E0B0E08F01021B130B4C01F2E08F2209
:10113A009924052C000C66087708CE018A199B09A8
:10114A00CA15DB0519F1411551056105710589F0CB
:10115A00CB01BA01A30192010E94500ECA01A62F27
:10116A00B72F605D6A9341E0C41AD108A901BC0196
:10117A00E4CF98012C0D3D1D121613064CF31C14D6
:10118A001D0434F48114910419F702C080E090E040
:10119A00AB2B31F4F701208131812F7E20833183FB
:0A11AA00CDB7DEB7E0E10C94F80EBB
:1011B400A2E0B0E0E0EEF8E00C94C90E5C016B0133
:1011C400FB01228133818480958080819181898390
:1011D4009A836680778037FD03C08D7F89839A83E5
:1011E400FA014081518162817381CE0101967C01B3
:1011F40008E010E09401C6010E947508298124FFCB
:1012040006C00197F301E80FF91F20E32083298129
:1012140023FF06C00197F301E80FF91F20E22083A2
:10122400E980FA80F6012085318521503109281B97
:10123400390B860D971DAC0160E88401C5010E943D
:1012440086099C01F5018081918190FF06C0F60119
:1012540082819381821793070CF4C9012296EEE0F0
:041264000C94FA0EDE
:10126800CF92DF92EF92DC0190E0292F30E0220F3D
:10127800331F6901032E000CEE086E2DA601495894
:101288005E4F6F4F6A01E62EFA015E2D0E94EC0F49
:10129800862F61110EC02F5F3F4F032E000C440BA9
:1012A80029583E4F4F4FF901542F0E94EC0F862FBB
:1012B80025C0CD90DD90EC901297F6015E2D0E942E
:1012C800EC0F861316C02F5F3F4F032E000C440B04
:1012D80029583E4F4F4FF901542F0E94EC0F962F7B
:1012E8005FEFC51AD50AE50ACD92DD92EC92129706
:1012F80001C09F5F9B3008F4B8CF892FEF90DF9033
:04130800CF900895E5
:10130C006F927F928F92AF92BF92CF92DF92EF92B9
:10131C00FF920F931F93CF93DF935C013A01862EBC
:10132C00E901670181E0C822DD24E0FC03C020173D
:10133C00310758F09E01682DA301C5010E94B90C1C
:10134C00C017D10710F0CE0118C07801EC1AFD0AB5
:10135C00E114F10449F0B50180E290E00E941A0A10
:10136C0081E0E81AF108F4CFCD2831F49E01682D04
:10137C00A301C5010E94B90CC801DF91CF911F9147
:10138C000F91FF90EF90DF90CF90BF90AF908F9028
:06139C007F906F900895A0
:1013A200A3E8B0E0E7EDF9E00C94CB0E5C01490153
:1013B200CF57DF4F488359836A83C158D040C12C2D
:1013C200D12CCF57DF4F9881C158D040CE57DF4F35
:1013D2008881C258D040CD57DF4F5881C358D04082
:1013E200E92FF82F0E94EC0F6623E9F074018601C1
:1013F20020E830E0AE014F5F5F4FBE016F577F4F75
:10140200C5010E94CD008C0D9D1D8C159D054CF4CF
:101412008FE490E080930040909301408FEF9FEF24
:1014220003C06C01CECFC601CD57DF4FECE00C9468
:02143200FC0EAE
:101434000F931F93CF93DF93DB012D913C91119771
:1014440030FF25C017964D915C91189715962D91F4
:101454003C9116974217530778F41296ED91FC913C
:101464001397808312962D913C9113972F5F3F4FD2
:1014740012962D933C93139717962D913C911897A0
:101484002F5F3F4F17962D933C93189715C01D96C9
:10149400ED91FC911E97309719F48FEF9FEF0CC0DC
:1014A4008B01EC010995892BC1F7F801878190859F
:1014B400019687839087CE01DF91CF911F910F9181
:0214C400089589
:1014C600A2E0B0E0E9E6FAE00C94C90E5C016B011B
:1014D600FB0122813381848095808081918189837B
:1014E6009A836680778037FD03C08D7F89839A83D0
:1014F600FA014081518162817381CE0101967C019E
:101506000AE010E09401C6010E947508E980FA809D
:10151600F6012085318521503109281B390B860DAE
:10152600971DAC0160E88401C5010E9486099C01F3
:10153600F5018081918190FF06C0F6018281938139
:10154600821793070CF4C9012296EEE00C94FA0E6A
:101556001F920F920FB60F9211240BB60F922F9374
:101566003F934F935F936F937F938F939F93AF9325
:10157600BF93EF93FF938091430180FF07C0E091F3
:101586004340F0914440309709F00995809143011A
:1015960081FF07C0E0914140F0914240309709F049
:1015A600099583E080934301FF91EF91BF91AF913D
:1015B6009F918F917F916F915F914F913F912F9165
:0E15C6000F900BBE0F900FBE0F901F90189548
:1015D400CF93DF93DC01EB012D913D914C91129758
:1015E400F901542F0E94EC0F6A3221F080E090E060
:1015F4007AE00FC02F5F3F4F4F4F2D933D934C9395
:10160400E881F981CF010296888399838081918151
:101614001BC02D913D914C911297F901542F0E94BA
:10162400EC0F60536A3080F4789FF001799FF00DDD
:101634001124CF01860F911D2F5F3F4F4F4F2D93E4
:0E1644003D934C931297E5CFDF91CF9108951F
:10165200E894F92F96EBFF2381F012161306140675
:10166200440B9395F69587957795679557954040E6
:10167200FF23B9F71BC099270895882351F4985086
:10168200D2F7872B762F652F542F432F322F20E04E
:10169200B1F3121613061406440B88233AF09A95F6
:1016A200440F551F661F771F881FCAF755234AF438
:1016B200440F551F11F460FF04C06F5F7F4F8F4FBF
:0C16C2009F4F880F9695879597F9089523
:1016CE006F927F928F92CF92DF92EF92FF920F9353
:1016DE001F93CF93DF936C01FB013901842EC80158
:1016EE00C281D38104811581E080F180232B242BCC
:1016FE0031F42DE8622E21E0722E20E0822E00972A
:10170E0021F4882DB3010E940E0FD7FD04C0C81717
:10171E00D90708F4CE019C01682DA301C6010E94D1
:10172E008609DF91CF911F910F91FF90EF90DF907F
:0A173E00CF908F907F906F90089578
:10174800CF92DF92EF92CF93DF93262F982FEA0163
:10175800E62FF72F582F0E94EC0F862F4D855E85B8
:10176800452B21F0C22ED72EE92E0FC08FEF9FEF09
:101778001DC009952FEFC21AD20AE20A892BB1F7C8
:10178800F6015E2D0E94EC0F862FED85FE85BE01C9
:101798008111EFCF8AE0099521E030E0892B11F41F
:1017A80020E030E088279927821B930BDF91CF91A7
:0817B800EF90DF90CF9008953F
:1017C00040E068ED80E690E00E94051040E068EDA2
:1017D00081E690E00E94051040E068ED82E690E02E
:1017E0000E94051040E068ED83E690E00E9405103D
:1017F0004CE068ED88E690E00E94051040E068ED5E
:1018000089E690E00E94051040E068ED88E790E0EE
:101810000E94051040E068ED80E790E00E9405100E
:0E18200040E068ED8CE790E00E94051008950E
:10182E000E94510F6EE571E080E00E94A70F8CECD4
:10183E0095E00E940F1089E190E10E9414100F2E86
:10184E00F2E7CF2EF1E0DF2EF0E0EF2EF02D8091BB
:10185E0051408823E1F30E947E0D60932F407093D8
:10186E00304080933140909332400E94AD0D7F9373
:10187E006F93EF92DF92CF920E94AC0E1092514076
:0C188E000F900F900F900F900F90E1CF83
:10189A001F920F920FB60F9211240BB60F922F932D
:1018AA003F934F935F936F937F938F939F93AF93DE
:1018BA00BF93EF93FF93599B05C0E0914B40F09182
:1018CA004C400995589B05C0E0914940F0914A4027
:1018DA0009958FEF8BB9FF91EF91BF91AF919F91CE
:1018EA008F917F916F915F914F913F912F910F90BF
:0C18FA000BBE0F900FBE0F901F901895B2
:101906001F920F920FB60F9211240BB60F922F93C0
:101916003F934F935F936F937F938F939F93AF9371
:10192600BF93EF93FF937E9B05C0E0914740F091F4
:10193600484009957F9B05C0E0914540F09146409F
:1019460009958FEF8FB9FF91EF91BF91AF919F915D
:101956008F917F916F915F914F913F912F910F9052
:0C1966000BBE0F900FBE0F901F90189545
:101972006F927F928F92CF92DF92EF920F931F938B
:10198200CF93DF938C016A01E62EE9013A01862E9C
:10199200620E731E811C37FD8A94C614D704E804B4
:1019A20081F0F6015E2D0E94EC0F862FB801082E01
:1019B200000C990B0E941A0A8FEFC81AD80AE80A7B
:1019C200ECCFCE01DF91CF911F910F91EF90DF907D
:0A19D200CF908F907F906F900895E2
:1019DC001F920F920FB60F9211240BB60F922F93EA
:1019EC003F934F935F936F937F938F939F93AF939B
:1019FC00BF93EF93FF9382E080930D06E0913D40FF
:101A0C00F0913E40309709F00995FF91EF91BF910D
:101A1C00AF919F918F917F916F915F914F913F917A
:101A2C002F910F900BBE0F900FBE0F901F9018951B
:101A3C001F920F920FB60F9211240BB60F922F9389
:101A4C003F934F935F936F937F938F939F93AF933A
:101A5C00BF93EF93FF9381E080930D06E0913B40A1
:101A6C00F0913C40309709F00995FF91EF91BF91AF
:101A7C00AF919F918F917F916F915F914F913F911A
:101A8C002F910F900BBE0F900FBE0F901F901895BB
:101A9C001F920F920FB60F9211240BB60F922F9329
:101AAC003F934F935F936F937F938F939F93AF93DA
:101ABC00BF93EF93FF93E0913F40F09140403097FC
:101ACC0009F0099581E080935301FF91EF91BF914B
:101ADC00AF919F918F917F916F915F914F913F91BA
:101AEC002F910F900BBE0F900FBE0F901F9018955B
:101AFC002091134030911440409115405091164064
:101B0C0060911740709118408091194090911A4043
:101B1C000E94F90F20E030E048E453E40E943710B3
:101B2C0060932340709324408093254090932640EB
:101B3C000E94360328EB3EE145E55AE30E943B1038
:0E1B4C0020E030EC4AED54E40E943B10089576
:101B5A000E94360E88F09F5798F0B92F9927B751EF
:101B6A00B0F0E1F0660F771F881F991F1AF0BA9537
:101B7A00C9F714C0B13091F00E94DE0FB1E00895A8
:101B8A000C94DE0F672F782F8827B85F39F0B93F9A
:101B9A00CCF3869577956795B395D9F73EF49095EA
:0E1BAA008095709561957F4F8F4F9F4F0895E6
:101BB800E0E2F8E083E896E080879187158280EC80
:101BC800868383E08783138614861686158686E4C3
:101BD80090E1809337409093384087E490E1809378
:101BE80035409093364088E490E180933340909359
:101BF80034401092394010923A40E0914D40F091B3
:0C1C08004E4082E090E4808391830895B8
:101C1400990F0008550FAA0BE0E8FEEF16161706F9
:101C2400E807F907C0F012161306E407F50798F061
:101C3400621B730B840B950B39F40A2661F0232B7A
:101C4400242B252B21F408950A2609F4A140A695F6
:081C54008FEF811D811D089531
:101C5C0057FD9058440F551F59F05F3F71F0479551
:101C6C00880F97FB991F61F09F3F79F08795089536
:101C7C00121613061406551FF2CF4695F1DF08C055
:101C8C00161617061806991FF1CF86957105610572
:041C9C00089408950B
:101CA000A1E21A2EAA1BBB1BFD010DC0AA1FBB1F60
:101CB000EE1FFF1FA217B307E407F50720F0A21BD2
:101CC000B30BE40BF50B661F771F881F991F1A943F
:101CD00069F760957095809590959B01AC01BD0169
:041CE000CF01089593
:101CE400E0E4F1E081818111FDCFE0E4F1E08FEFE8
:101CF4009FE784879587108611868FEF9FEF8287F1
:101D04009387178281E08283808381898111FDCF4B
:101D1400E0E4F1E081E0828B89E1808B80E008954A
:101D2400E0E0F6E0118281E0828313821482168659
:101D3400138684871086118686E085838FEF97E06B
:101D4400848B958B80E098EF828B938B81E28083E8
:041D540080E008958E
:101D5800A0E0B0E0E2EBFEE00C94D50E9E012B5F14
:101D68003F4FF9014191519161919F01E0914D409F
:101D7800F0914E40808191810E94DE0EE2E00C9449
:021D8800060F44
:101D8A002F923F924F925F926F927F928F929F9281
:101D9A00AF92BF92CF92DF92EF92FF920F931F936F
:101DAA00CF93DF93CDB7DEB7CA1BDB0BCDBFDEBF48
:021DBA0009948A
:101DBC00A2E0B0E0E4EEFEE00C94D30E8C0129839B
:101DCC003A839E012F5F3F4F0E94D109F801208179
:101DDC0024FF02C08FEF9FEF2296E4E00C94040FD7
:101DEC002A88398848885F846E847D848C849B849F
:101DFC00AA84B984C884DF80EE80FD800C811B81AD
:101E0C00AA81B981CE0FD11DCDBFDEBFED010895E2
:101E1C009B01482FA82FCB01FC015A2F0E94EC0FDD
:101E2C00662319F00196A11DF7CF642FA901841B1D
:041E3C00950B089565
:101E4000092E0394000C11F4882352F0BB0F40F4C8
:101E5000BF2B11F460FF04C06F5F7F4F8F4F9F4F08
:021E60000895E3
:101E62009095809570956095509540953095219507
:101E72003F4F4F4F5F4F6F4F7F4F8F4F9F4F089591
:101E8200DB018F939F930E94880FBF91AF91A29F16
:101E9200800D911DA39F900DB29F900D1124089566
:101EA2000E94E00B0E9438050E94920E0E94720E60
:0E1EB2000E94DC0D0E94B90F0E946F0F089570
:101EC000A29FB001B39FC001A39F700D811D11247B
:0E1ED000911DB29F700D811D1124911D08956A
:101EDE0040E068ED80E191E00E940510E0E1F1E064
:0A1EEE0012821382789480E00895B8
:101EF800CF93C82F0E94F30F8823E1F3C0932208E1
:081F080080E090E0CF91089504
:101F10000E94600FA59F900DB49F900DA49F800D0F
:061F2000911D112408953B
:101F2600EC010E944E100E944D10CE010E944F10EF
:061F3600CE010E944410E0
:101F3C002A0D3B1D4C1D5D1D6E1D7F1D801F911FAD
:021F4C000895F6
:101F4E00E0914D40F0914E40408151810E94A40B92
:021F5E000895E4
:101F60009C01215631092A31310510F48F759927CA
:021F70000895D2
:101F7200E0EAF0E0148285E88083128280E008952E
:101F82009C01215431092A31310508F480620895F7
:0E1F9200E0E0F6E08087618781E082870895B5
:0E1FA00000240A94161617061806090608955E
:0E1FAE0000240A941216130614060506089560
:0E1FBC00E894BB2766277727CB0197F9089595
:0E1FCA005058BB27AA270E940E080C94200F27
:0E1FD80057FD03C05BBF6791089560810895B7
:0C1FE6008091240885FB882780F908956D
:0C1FF20097FB16F40E94310F0C942A0B90
:0C1FFE0097F99F6780E870E060E00895AC
:0A200A001BBEFC0164BF4083089573
:0A20140080911006909111060895C6
:0A201E0080933B4090933C400895EE
:0A20280080933F40909340400895DC
:0A20320067E086E00E94C90F0895E0
:0A203C008F938FEF83B98F911895F1
:0A2046008F938FEF87B98F911895E3
:0A2050008F938FEF83BB8F911895DB
:0A205A008F938FEF87BB8F911895CD
:0A2064000E940A0E08F48FEF0895A1
:08206E000E94C8060C94200F2B
:082076000E94A4070C94200F46
:06207E009FEF80EC0895C5
:042084000C940000B8
:042088000E94AD0005
:02208C000895B5
:02208E000895B3
:022090000895B1
:022092000895AF
:022094000895AD
:022096000895AB
:022098000895A9
:02209A000895A7
:02209C000895A5
:02209E000895A3
:1020A000030000000000000000000000007C0F00A2
:0120B000002F
:0220B1004F409E
:02000004008278
:090000000000000000C000000037
:00000001FF
