:100000000C947D000C94D90E0C94D90E0C944807D6
:100010000C94100A0C94D90E0C94DC0B0C94D90E91
:100020000C94D90E0C94D90E0C94D90E0C94D90EB4
:100030000C94D90E0C94D90E0C94D90E0C94D90EA4
:100040000C94D90E0C94D90E0C94D90E0C94D90E94
:100050000C94D90E0C94D90E0C945E080C94D90E05
:100060000C940D0B0C94CE090C94D90E0C94D90E53
:100070000C94D90E0C9408080C94D90E0C94D90E3B
:100080000C94D90E0C94D90E0C94540C0C94D90EDB
:100090000C94D90E0C94D90E0C94D90E0C94D90E44
:1000A0000C94D90E0C94D90E0C94D90E0C94D90E34
:1000B0000C94040C0C942C0C0C94D90E0C94D90EAA
:1000C0000C94D90E0C94D90E0C94D90E0C94D90E14
:1000D0000C94D90E0C94D90E0C94D90E0C94D90E04
:1000E0000C94D90E0C94D90E40004022804022403E
:1000F00031001DB640314047800011241FBECFEFB4
:10010000CDBFDFE7DEBFE8EEF0E040E019C0B79119
:10011000A79137912791079107FD0EC0979187917D
:10012000EF01F92FE82F0BBF07900D92A217B3072D
:10013000D9F7FE011BBE04C01D92A217B307E1F759
:10014000E93FF40721F70E94B0080C94A700F89447
:02015000FFCFDF
:1001520053797374656D20496E697469616C697A4B
:09016200656420002564200A00F8
:10016C002F923F924F926F927F928F929F92AF926B
:10017C00BF92CF92DF92EF92FF920F931F93CF9388
:10018C00DF93CDB7DEB76297CDBFDEBF6C013A010E
:10019C00862E7901FC0117821086848181FFEBC1C8
:1001AC009E012F5F3F4F2C873D87C901A0E8888BAC
:1001BC00998BAA8B9FE3992EF301582D0E94B60EB2
:1001CC00862F662309F4D3C1482D93012F5F3F4F2F
:1001DC004F4F653219F03901842E0BC0F901542FA1
:1001EC000E94B60E862F92E0690E711C811C65323E
:1001FC0029F4B60190E00E94D10ADECFB12C00E0C8
:10020C0010E01032A0F48B3269F030F4803259F0E7
:10021C00833269F410612CC08D3239F0803339F49B
:10022C00116026C01260146023C0186021C017FD35
:10023C002AC090ED980F9A3078F416FF06C0AAE009
:10024C00BA9E900D1124B92E13C0EAE00E9F900DAA
:10025C001124092F10620CC08E3221F416FD87C1B7
:10026C00106406C08C3611F4106802C0883659F43C
:10027C00F301582D0E94B60E862FFFEF6F1A7F0ADE
:10028C008F0A6111BECF982F9F7D9554933028F41F
:10029C0024E0E20EF11C99820FC0833631F08337D3
:1002AC0091F0833509F064C027C0F7018081898300
:1002BC0097012E5F3F4F7901288839884A88AA24F4
:1002CC00A394B12C17C0A7014D5F5F4F4E875F877A
:1002DC00F70120803180428016FF03C04B2D50E087
:1002EC0002C04FEF5FEF842DB1010E94DF0C5C0167
:1002FC00EE84FF841F7718C097012D5F3F4F2E8728
:10030C003F87F70120803180428016FF03C04B2DC0
:10031C0050E002C04FEF5FEF842DB1010E94DF0C63
:10032C005C011068EE84FF8413FD1EC0802F90E0EA
:10033C00A816B906C8F4B60180E290E00E94D10A72
:10034C000150F4CFF101542D0E94B60E862FFFEF11
:10035C002F1A3F0A4F0AB60190E00E94D10A0111F0
:10036C00015021E0A21AB108A114B10459F7F5C04B
:10037C00843611F0893671F5F70117FF08C06081DA
:10038C0071818281938197012C5F3F4F09C06081FD
:10039C007181072E000C880B990B97012E5F3F4F34
:1003AC0079011F76312E97FF0AC090958095709534
:1003BC0061957F4F8F4F9F4F312F3068332E2AE03E
:1003CC0030E0AE014F5F5F4F0E94AA07482E4C856C
:1003DC00441A4AC0853729F41F7EA12E2AE030E04A
:1003EC0025C0512F597FA52E8F36C1F018F48835B2
:1003FC0079F0BDC0803719F0883721F0B8C0852F4F
:10040C008061A82EA4FE0DC09A2D9460A92E09C05F
:10041C0014FF0AC0A52FA660AA2E06C028E030E063
:10042C0005C020E130E002C020E132E0F701A7FE78
:10043C0008C06081718182819381A7014C5F5F4FFD
:10044C0007C06081718180E090E0A7014E5F5F4F33
:10045C007A01AE014F5F5F4F0E94AA07482E5C8560
:10046C00451A8A2D8F77382E36FE0DC0932D9E7F20
:10047C00A92E4B1458F434FE0BC032FC09C0A32D2A
:10048C00AE7EAA2E05C0142DA32C03C0142D01C0C2
:10049C001B2DA4FE0EC0FE01E40DF11D80818033E6
:1004AC0021F4EA2DE97EAE2E08C0A2FE05C01E5F27
:1004BC0004C08A2D867809F01F5FA3FC11C0A0FE32
:1004CC0006C0101788F4040DB02EB11A0EC0101708
:1004DC0060F4B60180E290E00E94D10A1F5FF7CF72
:1004EC00101718F4011B02C0B42C00E0A4FE10C0BD
:1004FC00B60180E390E00E94D10AA2FE17C0A1FCD5
:10050C0003C088E790E002C088E590E0B6010CC01B
:10051C008A2D867859F0A1FE02C08BE201C080E2E0
:10052C00A7FC8DE2B60190E00E94D10A4B1438F47E
:10053C00B60180E390E00E94D10ABA94F7CF4A94B6
:10054C00E1E0F0E0EC0FFD1FE40DF11D8081B60140
:10055C0090E00E94D10A4110F2CF002309F42CCE76
:10056C00B60180E290E00E94D10A0150F6CFF6016C
:10057C008781908502C08FEF9FEF6296CDBFDEBF63
:10058C00DF91CF911F910F91FF90EF90DF90CF9063
:10059C00BF90AF909F908F907F906F904F903F90B7
:0405AC002F900895EF
:1005B000CF93DF93CDB7DEB70E94550580E094E07E
:1005C000FC01108280E294E0FC01108280E494E05F
:1005D00021E0FC01208380E694E0FC01108280E8A9
:1005E00094E0FC01108280EA94E0FC01108280E03B
:1005F00094E0FC01148280E294E0FC01148280E427
:1006000094E0FC01148280E694E0FC01148280E80E
:1006100094E0FC01148280EA94E0FC01148280E002
:1006200094E0FC01108A80E094E0FC01118A80E0F3
:1006300094E0FC01128A80E094E0FC01138A80E0DF
:1006400094E0FC01148A80E094E0FC01158A80E0CB
:1006500094E0FC01168A80E094E0FC01178A80E2B5
:1006600094E0FC01108A80E294E0FC01118A80E2AF
:1006700094E0FC01128A80E294E0FC01138A80E29B
:1006800094E0FC01148A80E294E0FC01158A80E287
:1006900094E0FC01168A80E294E0FC01178A80E471
:1006A00094E0FC01108A80E494E0FC01118A80E46B
:1006B00094E0FC01128A80E494E0FC01138A80E457
:1006C00094E0FC01148A80E494E0FC01158A80E443
:1006D00094E0FC01168A80E494E0FC01178A80E62D
:1006E00094E0FC01108A80E694E0FC01118A80E627
:1006F00094E0FC01128A80E694E0FC01138A80E613
:1007000094E0FC01148A80E694E0FC01158A80E6FE
:1007100094E0FC01168A80E694E0FC01178A80E8E8
:1007200094E0FC01108A80E894E0FC01118A80E8E2
:1007300094E0FC01128A80E894E0FC01138A80E8CE
:1007400094E0FC01148A80E894E0FC01158A80E8BA
:1007500094E0FC01168A80E894E0FC01178A80EAA4
:1007600094E0FC01108A80EA94E0FC01118A80EA9E
:1007700094E0FC01128A80EA94E0FC01138A80EA8A
:1007800094E0FC01148A80EA94E0FC01158A80EA76
:1007900094E0FC01168A80EA94E0FC01178A80E06C
:1007A00094E0FC01138680E094E0FC01168680E072
:1007B00094E0FC01158680E094E0FC01148680E260
:1007C00094E0FC01138680E294E0FC01168680E24E
:1007D00094E0FC01158680E294E0FC01148680E43C
:1007E00094E0FC01138680E494E0FC01168680E42A
:1007F00094E0FC01158680E494E0FC01148680E618
:1008000094E0FC01138680E694E0FC01168680E605
:1008100094E0FC01158680E694E0FC01148680E8F3
:1008200094E0FC01138680E894E0FC01168680E8E1
:1008300094E0FC01158680E894E0FC01148680EACF
:1008400094E0FC01138680EA94E0FC01168680EABD
:1008500094E0FC01158680EA94E0FC01148680EEA9
:1008600095E0FC01118680EE95E0FC01118280EE9E
:1008700095E0FC01108280EE95E0FC01148280EE90
:1008800095E0FC01168280EE95E0FC01178280EE77
:1008900095E0FC01108680EE95E0FC01158280EE6B
:1008A00095E0FC01128280EE95E0FC01138280EE5F
:1008B00095E0FC0112868AE79EE00E94910D82E895
:1008C0009EE00E94A40D8AE89EE00E94B70D82E996
:0E08D0009EE00E94CA0D0000DF91CF910895B6
:1008DE002F923F924F925F926F927F928F929F9242
:1008EE00AF92BF92CF92DF92EF92FF920F931F9330
:1008FE00CF93DF93CDB7DEB72897CDBFDEBF0E9473
:10090E004E0E092E000CAA0BBB0B80931040909339
:10091E001140A0931240B09313402091104030919B
:10092E00114040911240509113408091104090918F
:10093E001140A0911240B0911340BC01CD010E9414
:10094E00210EDC01CB0180930C4090930D40A093BF
:10095E000E40B0930F4080910C4090910D40A091AD
:10096E000E40B0910F4089839A83AB83BC83BB0F3B
:10097E00880B982FDC018D838E838F838887209040
:10098E0014403090154040901640509017406090A3
:10099E0018407090194080901A4090901B40298109
:1009AE003A814B815C816D817E818F819885A22CED
:1009BE00B32CC42CD52CE62CF72C082D192D0E9407
:1009CE00710EA22EB32EC42ED52EE62EF72E082F84
:1009DE00192FA0921440B0921540C0921640D0929A
:1009EE001740E0921840F092194000931A4010936D
:1009FE001B40809145408F5F8093454080914540DC
:100A0E00883CA8F120911440309115404091164039
:100A1E0050911740609118407091194080911A4082
:100A2E0090911B4020930440309305404093064024
:100A3E0050930740609308407093094080930A409A
:100A4E0090930B4010921440109215401092164045
:100A5E0010921740109218401092194010921A409E
:100A6E0010921B401092454081E08093464000005A
:100A7E002896CDBFDEBFDF91CF911F910F91FF90D2
:100A8E00EF90DF90CF90BF90AF909F908F907F9020
:0C0A9E006F905F904F903F902F90089554
:100AAA00CF93DF93CDB7DEB72697CDBFDEBF1982CE
:100ABA0012C08981882F90E0805F9B4F2981222F65
:100ACA0030E0205F3B4FF90120812860FC01208340
:100ADA0089818F5F89838981883058F31A8212C08D
:100AEA008A81882F90E0805D9B4F2A81222F30E0F7
:100AFA00205D3B4FF90120812860FC0120838A8117
:100B0A008F5F8A838A81883058F31B8212C08B8157
:100B1A00882F90E0805B9B4F2B81222F30E0205B57
:100B2A003B4FF90120812860FC0120838B818F5F74
:100B3A008B838B81883058F31C8212C08C81882F5A
:100B4A0090E080599B4F2C81222F30E020593B4F57
:100B5A00F90120812860FC0120838C818F5F8C83BE
:100B6A008C81883058F31D8212C08D81882F90E0C5
:100B7A0080579B4F2D81222F30E020573B4FF901A0
:100B8A0020812860FC0120838D818F5F8D838D8178
:100B9A00883058F31E8212C08E81882F90E08055CB
:100BAA009B4F2E81222F30E020553B4FF9012081A7
:100BBA002860FC0120838E818F5F8E838E8188302E
:100BCA0058F300002696CDBFDEBFDF91CF9108957E
:100BDA00AF92BF92CF92DF92EF92FF920F931F9341
:100BEA00CF93DF9300D000D0CDB7DEB7A0900440FA
:100BFA00B0900540C0900640D0900740E090084071
:100C0A00F090094000910A4010910B402A2D3B2D8B
:100C1A004C2D5D2D6E2D7F2D802F912F0E94BD0EA4
:100C2A00DC01CB0120E030E048E453E4BC01CD0113
:100C3A000E94CE0EDC01CB018093004090930140CC
:100C4A00A0930240B09303408091004090910140EC
:100C5A00A0910240B0910340BC01CD010E94450918
:100C6A00DC01CB0189839A83AB83BC8328EB3EE109
:100C7A0045E55AE369817A818B819C810E94D20E73
:100C8A00DC01CB0189839A83AB83BC8320E030ECFF
:100C9A004AED54E469817A818B819C810E94D20E4B
:100CAA00DC01CB0189839A83AB83BC8389819A81D6
:100CBA00AB81BC81BC01CD012496CDBFDEBFDF91E3
:100CCA00CF911F910F91FF90EF90DF90CF90BF903F
:040CDA00AF9008953A
:100CDE0010C00E94A10E58F00E949A0E40F029F406
:100CEE005F3F29F00C94C30E51110C94A90E0C9475
:100CFE00D60E0E94A10C68F39923B1F3552391F3FC
:100D0E00951B550BBB27AA2762177307840738F06C
:100D1E009F5F5F4F220F331F441FAA1FA9F335D0C9
:100D2E000E2E3AF0E0E832D091505040E695001C7D
:100D3E00CAF72BD0FE2F29D0660F771F881FBB1F37
:100D4E00261737074807AB07B0E809F0BB0B802D15
:100D5E00BF01FF2793585F4F3AF09E3F510578F041
:100D6E000C94C30E0C94A90E5F3FE4F3983ED4F39B
:100D7E00869577956795B795F7959F5FC9F7880F15
:100D8E00911D9695879597F90895E1E0660F771F67
:100D9E00881FBB1F621773078407BA0720F0621BF8
:0E0DAE00730B840BBA0BEE1F88F7E0950895C7
:100DBC000FC00E949A0E38F00E94A10E20F09523CD
:100DCC0011F00C94C30E0C94D60E11240C94A90E95
:100DDC000E94A10C70F3959FC1F3950F50E0551F25
:100DEC00629FF001729FBB27F00DB11D639FAA2774
:100DFC00F00DB11DAA1F649F6627B00DA11D661FC3
:100E0C00829F2227B00DA11D621F739FB00DA11DE3
:100E1C00621F839FA00D611D221F749F3327A00D9D
:100E2C00611D231F849F600D211D822F762F6A2F39
:100E3C0011249F5750409AF0F1F088234AF0EE0F9E
:100E4C00FF1FBB1F661F771F881F91505040A9F7CB
:100E5C009E3F510580F00C94C30E0C94A90E5F3F7D
:100E6C00E4F3983ED4F3869577956795B795F79507
:100E7C00E7959F5FC1F7FE2B880F911D969587957F
:040E8C0097F9089535
:100E90001F920F9200903F000F92112400903B0090
:100EA0000F922F933F934F935F936F937F938F9303
:100EB0009F93AF93BF93EF93FF93CF93DF93CDB700
:100EC000DEB780E491E0FC018381882F90E081709F
:100ED0009927892B61F080913F4090914040892B68
:100EE00031F080913F4090914040FC01099580E4B1
:100EF00091E0FC018381882F90E082709927892BF3
:100F000061F08091414090914240892B31F0809175
:100F1000414090914240FC01099580E491E023E03A
:100F2000FC0123830000DF91CF91FF91EF91BF91EE
:100F3000AF919F918F917F916F915F914F913F9171
:100F40002F910F9000923B000F9000923F000F9066
:040F50001F90189541
:100F5400FA01AA27283051F1203181F1E8946F93E6
:100F64006E7F6E5F7F4F8F4F9F4FAF4FB1E03ED08C
:100F7400B4E03CD0670F781F891F9A1FA11D680F2A
:100F8400791F8A1F911DA11D6A0F711D811D911D5D
:100F9400A11D20D009F468943F912AE0269F1124D2
:100FA4003019305D3193DEF6CF010895462F477036
:100FB400405D4193B3E00FD0C9F7F6CF462F4F7091
:100FC400405D4A3318F0495D31FD4052419302D0EF
:100FD400A9F7EACFB4E0A695979587957795679595
:100FE400BA95C9F700976105710508959B01AC0195
:100FF4000A2E06945795479537952795BA95C9F7BC
:0C100400620F731F841F951FA01D08952C
:101010001F920F9200903F000F92112400903B000E
:101020000F922F933F934F935F936F937F938F9381
:101030009F93AF93BF93EF93FF93CF93DF93CDB77E
:10104000DEB788E090E0FC018381882F90E0827019
:101050009927892B31F08091394090913A40FC01D9
:10106000099588E090E0FC018381882F90E08170F1
:101070009927892B31F080913B4090913C40FC01B5
:10108000099588E090E02FEFFC0123830000DF91B9
:10109000CF91FF91EF91BF91AF919F918F917F91F0
:1010A0006F915F914F913F912F910F9000923B0074
:0C10B0000F9000923F000F901F901895C9
:1010BC001F920F9200903F000F92112400903B0062
:1010CC000F922F933F934F935F936F937F938F93D5
:1010DC009F93AF93BF93EF93FF93CF93DF93CDB7D2
:1010EC00DEB78CE090E0FC018381882F90E0807467
:1010FC009927892B31F08091354090913640FC0135
:10110C0009958CE090E0FC018381882334F4809174
:10111C00374090913840FC0109958CE090E02FEF1E
:10112C00FC0123830000DF91CF91FF91EF91BF91E0
:10113C00AF919F918F917F916F915F914F913F9163
:10114C002F910F9000923B000F9000923F000F9058
:04115C001F90189533
:10116000CF93DF9300D0CDB7DEB70E94FB0C62E5D2
:1011700071E080E00E94FC088AE59EE00E94DD0D9F
:10118000809146408823E1F30E94ED05DC01CB010C
:101190008093314090933240A0933340B0933440D9
:1011A0008091314090913240A0913340B0913440D1
:1011B000BC01CD010E94AD0BDC01CB0189839A8378
:1011C0008A818F9389818F9386E691E0A0E08A2FB0
:1011D0008F9386E691E0A0E0892F8F9386E691E0D9
:1011E000A0E08F930E94680D0F900F900F900F90CA
:0811F0000F9010924640C4CF9D
:1011F800CF92DF92EF920F931F93CF93DF93E091FB
:101208001E40F0911F40948191FF2EC06B01E82E83
:10121800D0E0C0E00CE110E4F6015E2D0E94B60EAD
:10122800862F6623A1F0D80112966D917C911397B1
:10123800DB011996ED91FC911A970995892B11F00C
:10124800DFEFCFEFBFEFCB1ADB0AEB0AE5CF6091F8
:101258001E4070911F40DB011996ED91FC911A9781
:101268008AE00995892B19F08FEF9FEF02C08D2F27
:101278009C2FDF91CF911F910F91EF90DF90CF902E
:021288000895C7
:10128A0006C019F416F40C94D60E0C94400E0E9463
:10129A00A90CB8F39923C9F3B6F39F57550B87FFE7
:1012AA000E94AF0E0024A0E640EA900180585695AD
:1012BA00979528F4805C660F771F881F20F0261701
:1012CA003707480730F4621B730B840B2029312936
:1012DA004A2BA69517940794202531254A2758F7B3
:1012EA00660F771F881F20F026173707480730F444
:1012FA00620B730B840B200D311D411DA09581F7E4
:0E130A00B901842F9158880F96958795089504
:10131800CF93DF93CDB7DEB780E096E0FC01118272
:1013280080E096E021E0FC01228380E096E0FC0169
:10133800138280E096E0FC01148280E096E0FC01D4
:10134800168680E096E0FC01138680E096E021E0B6
:10135800FC01248780E096E0FC01108680E096E09E
:10136800FC01118680E096E026E0FC01258380E000
:1013780096E0FC01148A158A80E096E0FC01128A46
:10138800138A80E096E021E2FC01208380E0DF916F
:04139800CF91089554
:10139C001F920F9200903F000F92112400903B007F
:1013AC000F922F933F934F935F936F937F938F93F2
:1013BC009F93AF93BF93EF93FF93CF93DF93CDB7EF
:1013CC00DEB780913D4090913E40892B31F0809169
:1013DC003D4090913E40FC01099580E096E022E072
:1013EC00FC0125870000DF91CF91FF91EF91BF9118
:1013FC00AF919F918F917F916F915F914F913F91A1
:10140C002F910F9000923B000F9000923F000F9095
:04141C001F90189570
:101420001F920F9200903F000F92112400903B00FA
:101430000F922F933F934F935F936F937F938F936D
:101440009F93AF93BF93EF93FF93CF93DF93CDB76A
:10145000DEB78091434090914440892B31F08091D8
:10146000434090914440FC01099580E491E021E0E3
:10147000FC01238B0000DF91CF91FF91EF91BF9191
:10148000AF919F918F917F916F915F914F913F911C
:101490002F910F9000923B000F9000923F000F9011
:0414A0001F901895EC
:1014A400CF93DF93CDB7DEB7000080E491E0FC0179
:1014B40081818823D1F780E491E02FEF3FE7FC019D
:1014C4002487358780E491E0FC011086118680E44E
:1014D40091E02FEF3FEFFC012287338780E491E016
:1014E400FC01178280E491E021E0FC01228380E486
:1014F40091E021E0FC012083000080E491E0FC0104
:1015040081898823D1F780E491E021E0FC01228BDA
:1015140080E491E029E1FC01208B80E0DF91CF9110
:02152400089528
:10152600E894F92F96EBFF2381F0121613061406A2
:10153600440B9395F6958795779567955795404013
:10154600FF23B9F71BC099270895882351F49850B3
:10155600D2F7872B762F652F542F432F322F20E07B
:10156600B1F3121613061406440B88233AF09A9523
:10157600440F551F661F771F881FCAF755234AF465
:10158600440F551F11F460FF04C06F5F7F4F8F4FEC
:0C1596009F4F880F9695879597F9089550
:1015A2000F931F93CF93DF93FB01248121FD03C08F
:1015B2008FEF9FEF2CC022FF16C0478150852581F7
:1015C20036814217530744F4A081B1819D012F5FF8
:1015D2003F4F208331838C93278130852F5F3F4F8C
:1015E2002783308714C08B01EC01FB010184F28553
:1015F200E02D0995892BE1F6D80117968D919C91E2
:101602001897019617968D939C931897CE01DF91A8
:08161200CF911F910F91089583
:10161A001F920F9200903F000F92112400903B00FE
:10162A000F922F933F934F935F936F937F938F9371
:10163A009F93AF93BF93EF93FF93CF93DF93CDB76E
:10164A00DEB70E946F0480E096E021E0FC01258766
:10165A000000DF91CF91FF91EF91BF91AF919F91E0
:10166A008F917F916F915F914F913F912F910F9041
:10167A0000923B000F9000923F000F901F90189528
:10168A00CF93DF93CDB7DEB760E080E690E00E94AB
:10169A003D0D60E081E690E00E943D0D60E082E64B
:1016AA0090E00E943D0D60E083E690E00E943D0DCF
:1016BA006CE088E690E00E943D0D60E089E690E0EB
:1016CA000E943D0D60E088E790E00E943D0D60E0D9
:1016DA0080E790E00E943D0D60E08CE790E00E9478
:0A16EA003D0D0000DF91CF9108953F
:1016F400CF93DF93CDB7DEB780E298E023E836E0FE
:10170400FC012087318780E298E0FC01158280E2A9
:1017140098E020ECFC01268380E298E023E0FC01C1
:10172400278380E298E0FC01138680E298E0FC01C4
:10173400148680E298E0FC01168680E298E0FC01C1
:10174400158682E290E480931E4090931F4000002F
:06175400DF91CF91089522
:10175A000E94A90C88F09F5798F0B92F9927B75182
:10176A00B0F0E1F0660F771F881F991F1AF0BA953B
:10177A00C9F714C0B13091F00E94A80EB1E00895E3
:10178A000C94A80E672F782F8827B85F39F0B93FD5
:10179A00CCF3869577956795B395D9F73EF49095EE
:0E17AA008095709561957F4F8F4F9F4F0895EA
:1017B8001F920F9200903F000F92112400903B005F
:1017C8000F922F938F939F93EF93FF93CF93DF9372
:1017D800CDB7DEB780E090E02FEFFC012383000057
:1017E800DF91CF91FF91EF919F918F912F910F9062
:1017F80000923B000F9000923F000F901F901895A9
:101808001F920F9200903F000F92112400903B000E
:101818000F922F938F939F93EF93FF93CF93DF9321
:10182800CDB7DEB784E090E02FEFFC012383000002
:10183800DF91CF91FF91EF919F918F912F910F9011
:1018480000923B000F9000923F000F901F90189558
:101858001F920F9200903F000F92112400903B00BE
:101868000F922F938F939F93EF93FF93CF93DF93D1
:10187800CDB7DEB780E190E02FEFFC0123830000B5
:10188800DF91CF91FF91EF919F918F912F910F90C1
:1018980000923B000F9000923F000F901F90189508
:1018A8001F920F9200903F000F92112400903B006E
:1018B8000F922F938F939F93EF93FF93CF93DF9381
:1018C800CDB7DEB784E190E02FEFFC012383000061
:1018D800DF91CF91FF91EF919F918F912F910F9071
:1018E80000923B000F9000923F000F901F901895B8
:1018F800CF93DF9300D0CDB7DEB789836A8380E0CA
:1019080096E020E036E0F90120812062FC01208386
:1019180080E096E02981FC01208780E096E02A811A
:10192800FC01218780E096E021E0FC01228700008D
:0A1938000F900F90DF91CF910895FA
:1019420057FD9058440F551F59F05F3F71F047956E
:10195200880F97FB991F61F09F3F79F08795089553
:10196200121613061406551FF2CF4695F1DF08C072
:10197200161617061806991FF1CF8695710561058F
:041982000894089528
:10198600CF93DF9300D01F92CDB7DEB789836A83EA
:101996007B8300000E947D0D982F81E08927882394
:1019A600C9F789810E94010E80E090E02396CDBFA1
:0819B600DEBFDF91CF9108951F
:1019BE00CF92DF92EF926B01E82E9A01A82FCB0106
:1019CE002115310531F48C199D09EF90DF90CF90E0
:1019DE000895FC015A2F0E94B60E6623A1F30196BC
:0819EE00A11D21503109ECCFCD
:1019F600CF93DF93CDB7DEB70E94270D0E94450B2C
:101A06000E947A0B0E948C090E94520A0E94530D72
:0C1A16000E94D8020000DF91CF910895DB
:101A2200CF93DF9300D01F92CDB7DEB789839A831D
:101A32006B8389819A814B8168ED0E94C90E0000F7
:0C1A42002396CDBFDEBFDF91CF91089549
:101A4E00CF93DF93CDB7DEB760E080E191E00E94E7
:101A5E00110D80E191E0FC01128280E191E0FC0128
:0C1A6E001382789480E0DF91CF910895FE
:101A7A00CF93DF9300D01F92CDB7DEB789839A83C5
:101A8A006B8389819A814B8168ED0E94C90E00009F
:0C1A9A002396CDBFDEBFDF91CF910895F1
:101AA600CF93DF93CDB7DEB780EA90E0FC011482D6
:101AB60080EA90E025E8FC01208380EA90E0FC01C2
:0A1AC600128280E0DF91CF910895B5
:101AD000CF93DF93CDB7DEB79E012B5F3F4FF90168
:101AE0004191519161919F0180911E4090911F40C1
:0A1AF0000E94B600DF91CF91089527
:101AFA00CF93DF93CDB7DEB780E298E0FC01848113
:101B0A00882F90E08072992721E0892B09F420E040
:081B1A00822FDF91CF910895A5
:101B2200CF93DF9300D0CDB7DEB789839A838981C3
:101B32009A81809335409093364000000F900F9029
:061B4200DF91CF91089530
:101B4800CF93DF9300D0CDB7DEB789839A8389819D
:101B58009A81809337409093384000000F900F90FF
:061B6800DF91CF9108950A
:101B6E00CF93DF9300D0CDB7DEB789839A83898177
:101B7E009A818093394090933A4000000F900F90D5
:061B8E00DF91CF910895E4
:101B9400CF93DF9300D0CDB7DEB789839A83898151
:101BA4009A8180933B4090933C4000000F900F90AB
:061BB400DF91CF910895BE
:101BBA00CF93DF9300D0CDB7DEB789839A8389812B
:101BCA009A81809343409093444000000F900F9075
:061BDA00DF91CF91089598
:101BE000092E0394000C11F4882352F0BB0F40F42B
:101BF000BF2B11F460FF04C06F5F7F4F8F4F9F4F6B
:021C0000089545
:101C0200CF93DF931F92CDB7DEB7898380E298E04E
:101C12002981FC01228300000F90DF91CF9108956A
:101C22009095809570956095509540953095219549
:101C32003F4F4F4F5F4F6F4F7F4F8F4F9F4F0895D3
:101C4200DB018F939F930E94660EBF91AF91A29F7B
:101C5200800D911DA39F900DB29F900D11240895A8
:101C6200A29FB001B39FC001A39F700D811D1124DB
:0E1C7200911DB29F700D811D1124911D0895CA
:101C80009F3F31F0915020F4879577956795B795F0
:0C1C9000880F911D9695879597F908958F
:101C9C00CF93DF93CDB7DEB780E096E0FC0180896F
:081CAC009189DF91CF910895A9
:101CB400CF93DF93CDB7DEB767E086E00E947C0C5C
:081CC4000000DF91CF910895AB
:101CCC000E94310EA59F900DB49F900DA49F800D86
:061CDC00911D1124089582
:101CE2002A0D3B1D4C1D5D1D6E1D7F1D801F911F0A
:021CF200089553
:101CF400CF93DF93CDB7DEB70000DF91CF91089586
:101D0400CF93DF93CDB7DEB70000DF91CF91089575
:101D1400CF93DF93CDB7DEB70000DF91CF91089565
:101D2400CF93DF93CDB7DEB70000DF91CF91089555
:0E1D340000240A9416161706180609060895CC
:0E1D420000240A9412161306140605060895CE
:0E1D5000E894BB2766277727CB0197F9089503
:0E1D5E0091505040660F771F881FD2F70895EE
:0E1D6C0057FD03C05BBF679108956081089525
:0C1D7A0097FB16F40E94110E0C94940AC2
:0C1D860097F99F6780E870E060E0089526
:0A1D92001BBEFC0164BF40830895EE
:081D9C000E946F060C94F00D8B
:081DA4000E94DE060C94F00D14
:061DAC009FEF80EC08959A
:041DB2000C9400008D
:0F1DB600000000000200000000C30C000000004D
:02000004008278
:090000000000000000C000000037
:00000001FF
